{
  "contractName": "ResultDapp",
  "abi": [
    {
      "anonymous": false,
      "inputs": [
        {
          "indexed": false,
          "internalType": "uint256",
          "name": "id",
          "type": "uint256"
        },
        {
          "indexed": false,
          "internalType": "string",
          "name": "full_name",
          "type": "string"
        },
        {
          "indexed": false,
          "internalType": "string",
          "name": "mat_no",
          "type": "string"
        },
        {
          "indexed": false,
          "internalType": "string",
          "name": "department",
          "type": "string"
        },
        {
          "indexed": false,
          "internalType": "string",
          "name": "course_name_one",
          "type": "string"
        },
        {
          "indexed": false,
          "internalType": "string",
          "name": "course_name_two",
          "type": "string"
        },
        {
          "indexed": false,
          "internalType": "string",
          "name": "grade_one",
          "type": "string"
        },
        {
          "indexed": false,
          "internalType": "string",
          "name": "grade_two",
          "type": "string"
        }
      ],
      "name": "ResultCreated",
      "type": "event"
    },
    {
      "constant": true,
      "inputs": [],
      "name": "dapp_name",
      "outputs": [
        {
          "internalType": "string",
          "name": "",
          "type": "string"
        }
      ],
      "payable": false,
      "stateMutability": "view",
      "type": "function"
    },
    {
      "constant": true,
      "inputs": [],
      "name": "result_count",
      "outputs": [
        {
          "internalType": "uint256",
          "name": "",
          "type": "uint256"
        }
      ],
      "payable": false,
      "stateMutability": "view",
      "type": "function"
    },
    {
      "constant": true,
      "inputs": [
        {
          "internalType": "uint256",
          "name": "",
          "type": "uint256"
        }
      ],
      "name": "results",
      "outputs": [
        {
          "internalType": "uint256",
          "name": "id",
          "type": "uint256"
        },
        {
          "internalType": "string",
          "name": "full_name",
          "type": "string"
        },
        {
          "internalType": "string",
          "name": "mat_no",
          "type": "string"
        },
        {
          "internalType": "string",
          "name": "department",
          "type": "string"
        },
        {
          "internalType": "string",
          "name": "course_name_one",
          "type": "string"
        },
        {
          "internalType": "string",
          "name": "course_name_two",
          "type": "string"
        },
        {
          "internalType": "string",
          "name": "grade_one",
          "type": "string"
        },
        {
          "internalType": "string",
          "name": "grade_two",
          "type": "string"
        }
      ],
      "payable": false,
      "stateMutability": "view",
      "type": "function"
    },
    {
      "constant": false,
      "inputs": [
        {
          "internalType": "string",
          "name": "_full_name",
          "type": "string"
        },
        {
          "internalType": "string",
          "name": "_mat_no",
          "type": "string"
        },
        {
          "internalType": "string",
          "name": "_department",
          "type": "string"
        },
        {
          "internalType": "string",
          "name": "_course_name_one",
          "type": "string"
        },
        {
          "internalType": "string",
          "name": "_course_name_two",
          "type": "string"
        },
        {
          "internalType": "string",
          "name": "_grade_one",
          "type": "string"
        },
        {
          "internalType": "string",
          "name": "_grade_two",
          "type": "string"
        }
      ],
      "name": "createResult",
      "outputs": [],
      "payable": false,
      "stateMutability": "nonpayable",
      "type": "function"
    },
    {
      "constant": true,
      "inputs": [
        {
          "internalType": "uint256",
          "name": "_id",
          "type": "uint256"
        }
      ],
      "name": "getResult",
      "outputs": [
        {
          "internalType": "uint256",
          "name": "id",
          "type": "uint256"
        },
        {
          "internalType": "string",
          "name": "",
          "type": "string"
        },
        {
          "internalType": "string",
          "name": "",
          "type": "string"
        },
        {
          "internalType": "string",
          "name": "",
          "type": "string"
        },
        {
          "internalType": "string",
          "name": "",
          "type": "string"
        },
        {
          "internalType": "string",
          "name": "",
          "type": "string"
        },
        {
          "internalType": "string",
          "name": "",
          "type": "string"
        },
        {
          "internalType": "string",
          "name": "",
          "type": "string"
        }
      ],
      "payable": false,
      "stateMutability": "view",
      "type": "function"
    }
  ],
  "bytecode": "0x6080604052600080556040518060400160405280601681526020017f526573756c742050726f63657373696e6720446170700000000000000000000081525060029080519060200190620000559291906200006a565b503480156200006357600080fd5b5062000119565b828054600181600116156101000203166002900490600052602060002090601f016020900481019282601f10620000ad57805160ff1916838001178555620000de565b82800160010185558215620000de579182015b82811115620000dd578251825591602001919060010190620000c0565b5b509050620000ed9190620000f1565b5090565b6200011691905b8082111562000112576000816000905550600101620000f8565b5090565b90565b611b5e80620001296000396000f3fe608060405234801561001057600080fd5b50600436106100575760003560e01c80631b0c27da1461005c5780637adf5f3914610392578063995e4339146103b0578063b3ea346b146106e6578063f918ae1614610769575b600080fd5b6100886004803603602081101561007257600080fd5b8101908080359060200190929190505050610bae565b604051808981526020018060200180602001806020018060200180602001806020018060200188810388528f818151815260200191508051906020019080838360005b838110156100e65780820151818401526020810190506100cb565b50505050905090810190601f1680156101135780820380516001836020036101000a031916815260200191505b5088810387528e818151815260200191508051906020019080838360005b8381101561014c578082015181840152602081019050610131565b50505050905090810190601f1680156101795780820380516001836020036101000a031916815260200191505b5088810386528d818151815260200191508051906020019080838360005b838110156101b2578082015181840152602081019050610197565b50505050905090810190601f1680156101df5780820380516001836020036101000a031916815260200191505b5088810385528c818151815260200191508051906020019080838360005b838110156102185780820151818401526020810190506101fd565b50505050905090810190601f1680156102455780820380516001836020036101000a031916815260200191505b5088810384528b818151815260200191508051906020019080838360005b8381101561027e578082015181840152602081019050610263565b50505050905090810190601f1680156102ab5780820380516001836020036101000a031916815260200191505b5088810383528a818151815260200191508051906020019080838360005b838110156102e45780820151818401526020810190506102c9565b50505050905090810190601f1680156103115780820380516001836020036101000a031916815260200191505b50888103825289818151815260200191508051906020019080838360005b8381101561034a57808201518184015260208101905061032f565b50505050905090810190601f1680156103775780820380516001836020036101000a031916815260200191505b509f5050505050505050505050505050505060405180910390f35b61039a61101e565b6040518082815260200191505060405180910390f35b6103dc600480360360208110156103c657600080fd5b8101908080359060200190929190505050611024565b604051808981526020018060200180602001806020018060200180602001806020018060200188810388528f818151815260200191508051906020019080838360005b8381101561043a57808201518184015260208101905061041f565b50505050905090810190601f1680156104675780820380516001836020036101000a031916815260200191505b5088810387528e818151815260200191508051906020019080838360005b838110156104a0578082015181840152602081019050610485565b50505050905090810190601f1680156104cd5780820380516001836020036101000a031916815260200191505b5088810386528d818151815260200191508051906020019080838360005b838110156105065780820151818401526020810190506104eb565b50505050905090810190601f1680156105335780820380516001836020036101000a031916815260200191505b5088810385528c818151815260200191508051906020019080838360005b8381101561056c578082015181840152602081019050610551565b50505050905090810190601f1680156105995780820380516001836020036101000a031916815260200191505b5088810384528b818151815260200191508051906020019080838360005b838110156105d25780820151818401526020810190506105b7565b50505050905090810190601f1680156105ff5780820380516001836020036101000a031916815260200191505b5088810383528a818151815260200191508051906020019080838360005b8381101561063857808201518184015260208101905061061d565b50505050905090810190601f1680156106655780820380516001836020036101000a031916815260200191505b50888103825289818151815260200191508051906020019080838360005b8381101561069e578082015181840152602081019050610683565b50505050905090810190601f1680156106cb5780820380516001836020036101000a031916815260200191505b509f5050505050505050505050505050505060405180910390f35b6106ee61152b565b6040518080602001828103825283818151815260200191508051906020019080838360005b8381101561072e578082015181840152602081019050610713565b50505050905090810190601f16801561075b5780820380516001836020036101000a031916815260200191505b509250505060405180910390f35b610bac600480360360e081101561077f57600080fd5b810190808035906020019064010000000081111561079c57600080fd5b8201836020820111156107ae57600080fd5b803590602001918460018302840111640100000000831117156107d057600080fd5b91908080601f016020809104026020016040519081016040528093929190818152602001838380828437600081840152601f19601f8201169050808301925050505050505091929192908035906020019064010000000081111561083357600080fd5b82018360208201111561084557600080fd5b8035906020019184600183028401116401000000008311171561086757600080fd5b91908080601f016020809104026020016040519081016040528093929190818152602001838380828437600081840152601f19601f820116905080830192505050505050509192919290803590602001906401000000008111156108ca57600080fd5b8201836020820111156108dc57600080fd5b803590602001918460018302840111640100000000831117156108fe57600080fd5b91908080601f016020809104026020016040519081016040528093929190818152602001838380828437600081840152601f19601f8201169050808301925050505050505091929192908035906020019064010000000081111561096157600080fd5b82018360208201111561097357600080fd5b8035906020019184600183028401116401000000008311171561099557600080fd5b91908080601f016020809104026020016040519081016040528093929190818152602001838380828437600081840152601f19601f820116905080830192505050505050509192919290803590602001906401000000008111156109f857600080fd5b820183602082011115610a0a57600080fd5b80359060200191846001830284011164010000000083111715610a2c57600080fd5b91908080601f016020809104026020016040519081016040528093929190818152602001838380828437600081840152601f19601f82011690508083019250505050505050919291929080359060200190640100000000811115610a8f57600080fd5b820183602082011115610aa157600080fd5b80359060200191846001830284011164010000000083111715610ac357600080fd5b91908080601f016020809104026020016040519081016040528093929190818152602001838380828437600081840152601f19601f82011690508083019250505050505050919291929080359060200190640100000000811115610b2657600080fd5b820183602082011115610b3857600080fd5b80359060200191846001830284011164010000000083111715610b5a57600080fd5b91908080601f016020809104026020016040519081016040528093929190818152602001838380828437600081840152601f19601f8201169050808301925050505050505091929192905050506115c9565b005b6001602052806000526040600020600091509050806000015490806001018054600181600116156101000203166002900480601f016020809104026020016040519081016040528092919081815260200182805460018160011615610100020316600290048015610c605780601f10610c3557610100808354040283529160200191610c60565b820191906000526020600020905b815481529060010190602001808311610c4357829003601f168201915b505050505090806002018054600181600116156101000203166002900480601f016020809104026020016040519081016040528092919081815260200182805460018160011615610100020316600290048015610cfe5780601f10610cd357610100808354040283529160200191610cfe565b820191906000526020600020905b815481529060010190602001808311610ce157829003601f168201915b505050505090806003018054600181600116156101000203166002900480601f016020809104026020016040519081016040528092919081815260200182805460018160011615610100020316600290048015610d9c5780601f10610d7157610100808354040283529160200191610d9c565b820191906000526020600020905b815481529060010190602001808311610d7f57829003601f168201915b505050505090806004018054600181600116156101000203166002900480601f016020809104026020016040519081016040528092919081815260200182805460018160011615610100020316600290048015610e3a5780601f10610e0f57610100808354040283529160200191610e3a565b820191906000526020600020905b815481529060010190602001808311610e1d57829003601f168201915b505050505090806005018054600181600116156101000203166002900480601f016020809104026020016040519081016040528092919081815260200182805460018160011615610100020316600290048015610ed85780601f10610ead57610100808354040283529160200191610ed8565b820191906000526020600020905b815481529060010190602001808311610ebb57829003601f168201915b505050505090806006018054600181600116156101000203166002900480601f016020809104026020016040519081016040528092919081815260200182805460018160011615610100020316600290048015610f765780601f10610f4b57610100808354040283529160200191610f76565b820191906000526020600020905b815481529060010190602001808311610f5957829003601f168201915b505050505090806007018054600181600116156101000203166002900480601f0160208091040260200160405190810160405280929190818152602001828054600181600116156101000203166002900480156110145780601f10610fe957610100808354040283529160200191611014565b820191906000526020600020905b815481529060010190602001808311610ff757829003601f168201915b5050505050905088565b60005481565b60006060806060806060806060611039611a3f565b600160008b81526020019081526020016000206040518061010001604052908160008201548152602001600182018054600181600116156101000203166002900480601f0160208091040260200160405190810160405280929190818152602001828054600181600116156101000203166002900480156110fb5780601f106110d0576101008083540402835291602001916110fb565b820191906000526020600020905b8154815290600101906020018083116110de57829003601f168201915b50505050508152602001600282018054600181600116156101000203166002900480601f01602080910402602001604051908101604052809291908181526020018280546001816001161561010002031660029004801561119d5780601f106111725761010080835404028352916020019161119d565b820191906000526020600020905b81548152906001019060200180831161118057829003601f168201915b50505050508152602001600382018054600181600116156101000203166002900480601f01602080910402602001604051908101604052809291908181526020018280546001816001161561010002031660029004801561123f5780601f106112145761010080835404028352916020019161123f565b820191906000526020600020905b81548152906001019060200180831161122257829003601f168201915b50505050508152602001600482018054600181600116156101000203166002900480601f0160208091040260200160405190810160405280929190818152602001828054600181600116156101000203166002900480156112e15780601f106112b6576101008083540402835291602001916112e1565b820191906000526020600020905b8154815290600101906020018083116112c457829003601f168201915b50505050508152602001600582018054600181600116156101000203166002900480601f0160208091040260200160405190810160405280929190818152602001828054600181600116156101000203166002900480156113835780601f1061135857610100808354040283529160200191611383565b820191906000526020600020905b81548152906001019060200180831161136657829003601f168201915b50505050508152602001600682018054600181600116156101000203166002900480601f0160208091040260200160405190810160405280929190818152602001828054600181600116156101000203166002900480156114255780601f106113fa57610100808354040283529160200191611425565b820191906000526020600020905b81548152906001019060200180831161140857829003601f168201915b50505050508152602001600782018054600181600116156101000203166002900480601f0160208091040260200160405190810160405280929190818152602001828054600181600116156101000203166002900480156114c75780601f1061149c576101008083540402835291602001916114c7565b820191906000526020600020905b8154815290600101906020018083116114aa57829003601f168201915b5050505050815250509050806000015181602001518260400151836060015184608001518560a001518660c001518760e001518696508595508494508393508292508191508090509850985098509850985098509850985050919395975091939597565b60028054600181600116156101000203166002900480601f0160208091040260200160405190810160405280929190818152602001828054600181600116156101000203166002900480156115c15780601f10611596576101008083540402835291602001916115c1565b820191906000526020600020905b8154815290600101906020018083116115a457829003601f168201915b505050505081565b60008081548092919060010191905055506040518061010001604052806000548152602001888152602001878152602001868152602001858152602001848152602001838152602001828152506001600080548152602001908152602001600020600082015181600001556020820151816001019080519060200190611650929190611a84565b50604082015181600201908051906020019061166d929190611a84565b50606082015181600301908051906020019061168a929190611a84565b5060808201518160040190805190602001906116a7929190611a84565b5060a08201518160050190805190602001906116c4929190611a84565b5060c08201518160060190805190602001906116e1929190611a84565b5060e08201518160070190805190602001906116fe929190611a84565b509050507ff4262325e8a40796b5378c8fab4e19089f828f1013298ff6e77c77da52bbc83160005488888888888888604051808981526020018060200180602001806020018060200180602001806020018060200188810388528f818151815260200191508051906020019080838360005b8381101561178b578082015181840152602081019050611770565b50505050905090810190601f1680156117b85780820380516001836020036101000a031916815260200191505b5088810387528e818151815260200191508051906020019080838360005b838110156117f15780820151818401526020810190506117d6565b50505050905090810190601f16801561181e5780820380516001836020036101000a031916815260200191505b5088810386528d818151815260200191508051906020019080838360005b8381101561185757808201518184015260208101905061183c565b50505050905090810190601f1680156118845780820380516001836020036101000a031916815260200191505b5088810385528c818151815260200191508051906020019080838360005b838110156118bd5780820151818401526020810190506118a2565b50505050905090810190601f1680156118ea5780820380516001836020036101000a031916815260200191505b5088810384528b818151815260200191508051906020019080838360005b83811015611923578082015181840152602081019050611908565b50505050905090810190601f1680156119505780820380516001836020036101000a031916815260200191505b5088810383528a818151815260200191508051906020019080838360005b8381101561198957808201518184015260208101905061196e565b50505050905090810190601f1680156119b65780820380516001836020036101000a031916815260200191505b50888103825289818151815260200191508051906020019080838360005b838110156119ef5780820151818401526020810190506119d4565b50505050905090810190601f168015611a1c5780820380516001836020036101000a031916815260200191505b509f5050505050505050505050505050505060405180910390a150505050505050565b60405180610100016040528060008152602001606081526020016060815260200160608152602001606081526020016060815260200160608152602001606081525090565b828054600181600116156101000203166002900490600052602060002090601f016020900481019282601f10611ac557805160ff1916838001178555611af3565b82800160010185558215611af3579182015b82811115611af2578251825591602001919060010190611ad7565b5b509050611b009190611b04565b5090565b611b2691905b80821115611b22576000816000905550600101611b0a565b5090565b9056fea265627a7a72315820e3d94a093e1002264f1c98244d6278b2ef71ce4d59ec0ddf37565343b913bddb64736f6c634300050c0032",
  "source": "pragma solidity ^0.5.0;\n\ncontract ResultDapp{\n    uint public result_count = 0; // default value for result count\n    mapping(uint => Result) public results;\n    string public dapp_name = \"Result Processing Dapp\"; // dapp name\n\n    struct Result {\n        uint id;\n        string full_name; \n        string mat_no;\n        string department;\n        string course_name_one;\n        string course_name_two;\n        string grade_one;\n        string grade_two;\n   }\n\n   event ResultCreated(\n        uint id,\n        string full_name,\n        string mat_no,\n        string department,\n        string course_name_one,\n        string course_name_two,\n        string grade_one,\n        string grade_two\n   );\n\n  // create result\n function createResult(\n            string memory _full_name,\n            string memory _mat_no,\n            string memory _department,\n            string memory _course_name_one,\n            string memory _course_name_two,\n            string memory _grade_one,\n            string memory _grade_two\n            ) public{\n    result_count++;\n    results[result_count] = Result(\n                                result_count,\n                                _full_name,\n                                _mat_no,\n                                _department,\n                                _course_name_one,\n                                _course_name_two,\n                                _grade_one,\n                                _grade_two\n                            );\n    emit ResultCreated(\n          result_count,\n          _full_name,\n          _mat_no,\n          _department,\n          _course_name_one,\n          _course_name_two,\n          _grade_one,\n          _grade_two\n    );\n\n  }\n\n  function getResult(uint _id)public view returns(\n                                  uint id,\n                                  string memory,\n                                  string memory,\n                                  string memory,\n                                  string memory,\n                                  string memory,\n                                  string memory,\n                                  string memory\n                                  ){\n     Result memory r = results [_id];\n    //  return (r) ;\n        return (\n            r.id,\n            r.full_name,\n            r.mat_no,\n            r.department,\n            r.course_name_one,\n            r.course_name_two,\n            r.grade_one,\n            r.grade_two\n        );\n  }\n}",
  "sourcePath": "/home/goodness/Development/ethereum/result-contract/contracts/ResultDapp.sol",
  "compiler": {
    "name": "solc",
    "version": "0.5.12+commit.7709ece9.Emscripten.clang"
  },
  "schemaVersion": "3.0.19",
  "updatedAt": "2019-11-21T15:06:17.481Z",
  "networkType": "ethereum",
  "devdoc": {
    "methods": {}
  },
  "userdoc": {
    "methods": {}
  }
}